{
  "contractName": "VotingMigration",
  "abi": [
    {
      "anonymous": false,
      "inputs": [
        {
          "indexed": false,
          "internalType": "address",
          "name": "votingAddress",
          "type": "address"
        }
      ],
      "name": "VotingDeployed",
      "type": "event"
    },
    {
      "inputs": [
        {
          "internalType": "string[]",
          "name": "candidateNames",
          "type": "string[]"
        }
      ],
      "name": "deployVotingContract",
      "outputs": [],
      "stateMutability": "nonpayable",
      "type": "function"
    }
  ],
  "bytecode": "0x608060405234801561001057600080fd5b50611b01806100206000396000f3fe60806040523480156200001157600080fd5b50600436106200002e5760003560e01c80635787a6d81462000033575b600080fd5b6200005160048036038101906200004b91906200034d565b62000053565b005b6000816040516200006490620000cd565b620000709190620004f7565b604051809103906000f0801580156200008d573d6000803e3d6000fd5b5090507f891dfceae4b08390c62fbdd3e286bab67517614e6c966b2979a335d9276f643481604051620000c1919062000560565b60405180910390a15050565b61154e806200057e83390190565b6000604051905090565b600080fd5b600080fd5b600080fd5b6000601f19601f8301169050919050565b7f4e487b7100000000000000000000000000000000000000000000000000000000600052604160045260246000fd5b6200013f82620000f4565b810181811067ffffffffffffffff8211171562000161576200016062000105565b5b80604052505050565b600062000176620000db565b905062000184828262000134565b919050565b600067ffffffffffffffff821115620001a757620001a662000105565b5b602082029050602081019050919050565b600080fd5b600080fd5b600067ffffffffffffffff821115620001e057620001df62000105565b5b620001eb82620000f4565b9050602081019050919050565b82818337600083830152505050565b60006200021e6200021884620001c2565b6200016a565b9050828152602081018484840111156200023d576200023c620001bd565b5b6200024a848285620001f8565b509392505050565b600082601f8301126200026a5762000269620000ef565b5b81356200027c84826020860162000207565b91505092915050565b60006200029c620002968462000189565b6200016a565b90508083825260208201905060208402830185811115620002c257620002c1620001b8565b5b835b818110156200031057803567ffffffffffffffff811115620002eb57620002ea620000ef565b5b808601620002fa898262000252565b85526020850194505050602081019050620002c4565b5050509392505050565b600082601f830112620003325762000331620000ef565b5b81356200034484826020860162000285565b91505092915050565b600060208284031215620003665762000365620000e5565b5b600082013567ffffffffffffffff811115620003875762000386620000ea565b5b62000395848285016200031a565b91505092915050565b600081519050919050565b600082825260208201905092915050565b6000819050602082019050919050565b600081519050919050565b600082825260208201905092915050565b60005b8381101562000406578082015181840152602081019050620003e9565b60008484015250505050565b60006200041f82620003ca565b6200042b8185620003d5565b93506200043d818560208601620003e6565b6200044881620000f4565b840191505092915050565b600062000461838362000412565b905092915050565b6000602082019050919050565b600062000483826200039e565b6200048f8185620003a9565b935083602082028501620004a385620003ba565b8060005b85811015620004e55784840389528151620004c3858262000453565b9450620004d08362000469565b925060208a01995050600181019050620004a7565b50829750879550505050505092915050565b6000602082019050818103600083015262000513818462000476565b905092915050565b600073ffffffffffffffffffffffffffffffffffffffff82169050919050565b600062000548826200051b565b9050919050565b6200055a816200053b565b82525050565b60006020820190506200057760008301846200054f565b9291505056fe60806040523480156200001157600080fd5b506040516200154e3803806200154e8339818101604052810190620000379190620003b3565b336000806101000a81548173ffffffffffffffffffffffffffffffffffffffff021916908373ffffffffffffffffffffffffffffffffffffffff16021790555060005b81518110156200011c5760026040518060400160405280848481518110620000a757620000a662000404565b5b60200260200101518152602001600081525090806001815401808255809150506001900390600052602060002090600202016000909190919091506000820151816000019081620000f991906200067e565b506020820151816001015550508080620001139062000794565b9150506200007a565b5050620007e1565b6000604051905090565b600080fd5b600080fd5b600080fd5b6000601f19601f8301169050919050565b7f4e487b7100000000000000000000000000000000000000000000000000000000600052604160045260246000fd5b62000188826200013d565b810181811067ffffffffffffffff82111715620001aa57620001a96200014e565b5b80604052505050565b6000620001bf62000124565b9050620001cd82826200017d565b919050565b600067ffffffffffffffff821115620001f057620001ef6200014e565b5b602082029050602081019050919050565b600080fd5b600080fd5b600067ffffffffffffffff8211156200022957620002286200014e565b5b62000234826200013d565b9050602081019050919050565b60005b838110156200026157808201518184015260208101905062000244565b60008484015250505050565b6000620002846200027e846200020b565b620001b3565b905082815260208101848484011115620002a357620002a262000206565b5b620002b084828562000241565b509392505050565b600082601f830112620002d057620002cf62000138565b5b8151620002e28482602086016200026d565b91505092915050565b600062000302620002fc84620001d2565b620001b3565b9050808382526020820190506020840283018581111562000328576200032762000201565b5b835b818110156200037657805167ffffffffffffffff81111562000351576200035062000138565b5b808601620003608982620002b8565b855260208501945050506020810190506200032a565b5050509392505050565b600082601f83011262000398576200039762000138565b5b8151620003aa848260208601620002eb565b91505092915050565b600060208284031215620003cc57620003cb6200012e565b5b600082015167ffffffffffffffff811115620003ed57620003ec62000133565b5b620003fb8482850162000380565b91505092915050565b7f4e487b7100000000000000000000000000000000000000000000000000000000600052603260045260246000fd5b600081519050919050565b7f4e487b7100000000000000000000000000000000000000000000000000000000600052602260045260246000fd5b600060028204905060018216806200048657607f821691505b6020821081036200049c576200049b6200043e565b5b50919050565b60008190508160005260206000209050919050565b60006020601f8301049050919050565b600082821b905092915050565b600060088302620005067fffffffffffffffffffffffffffffffffffffffffffffffffffffffffffffffff82620004c7565b620005128683620004c7565b95508019841693508086168417925050509392505050565b6000819050919050565b6000819050919050565b60006200055f6200055962000553846200052a565b62000534565b6200052a565b9050919050565b6000819050919050565b6200057b836200053e565b620005936200058a8262000566565b848454620004d4565b825550505050565b600090565b620005aa6200059b565b620005b781848462000570565b505050565b5b81811015620005df57620005d3600082620005a0565b600181019050620005bd565b5050565b601f8211156200062e57620005f881620004a2565b6200060384620004b7565b8101602085101562000613578190505b6200062b6200062285620004b7565b830182620005bc565b50505b505050565b600082821c905092915050565b6000620006536000198460080262000633565b1980831691505092915050565b60006200066e838362000640565b9150826002028217905092915050565b620006898262000433565b67ffffffffffffffff811115620006a557620006a46200014e565b5b620006b182546200046d565b620006be828285620005e3565b600060209050601f831160018114620006f65760008415620006e1578287015190505b620006ed858262000660565b8655506200075d565b601f1984166200070686620004a2565b60005b82811015620007305784890151825560018201915060208501945060208101905062000709565b868310156200075057848901516200074c601f89168262000640565b8355505b6001600288020188555050505b505050505050565b7f4e487b7100000000000000000000000000000000000000000000000000000000600052601160045260246000fd5b6000620007a1826200052a565b91507fffffffffffffffffffffffffffffffffffffffffffffffffffffffffffffffff8203620007d657620007d562000765565b5b600182019050919050565b610d5d80620007f16000396000f3fe608060405234801561001057600080fd5b506004361061007d5760003560e01c806335b8e8201161005b57806335b8e820146100ee5780635c06b06e1461011f5780638da5cb5b1461013d578063a3ec138d1461015b5761007d565b80630121b93f146100825780632e6997fe1461009e5780633477ee2e146100bd575b600080fd5b61009c600480360381019061009791906106d5565b61018c565b005b6100a6610316565b6040516100b4929190610912565b60405180910390f35b6100d760048036038101906100d291906106d5565b61043f565b6040516100e59291906109a2565b60405180910390f35b610108600480360381019061010391906106d5565b6104fb565b6040516101169291906109a2565b60405180910390f35b610127610618565b60405161013491906109d2565b60405180910390f35b610145610625565b6040516101529190610a2e565b60405180910390f35b61017560048036038101906101709190610a75565b610649565b604051610183929190610abd565b60405180910390f35b6000600160003373ffffffffffffffffffffffffffffffffffffffff1673ffffffffffffffffffffffffffffffffffffffff16815260200190815260200160002090508060000160009054906101000a900460ff1615610221576040517f08c379a000000000000000000000000000000000000000000000000000000000815260040161021890610b32565b60405180910390fd5b60028054905082108015610236575060008210155b610275576040517f08c379a000000000000000000000000000000000000000000000000000000000815260040161026c90610b9e565b60405180910390fd5b60018160000160006101000a81548160ff021916908315150217905550308160000160016101000a81548173ffffffffffffffffffffffffffffffffffffffff021916908373ffffffffffffffffffffffffffffffffffffffff1602179055506001600283815481106102eb576102ea610bbe565b5b9060005260206000209060020201600101600082825461030b9190610c1c565b925050819055505050565b6060806000600280549050905060008167ffffffffffffffff81111561033f5761033e610c50565b5b60405190808252806020026020018201604052801561037257816020015b606081526020019060019003908161035d5790505b50905060008267ffffffffffffffff81111561039157610390610c50565b5b6040519080825280602002602001820160405280156103bf5781602001602082028036833780820191505090505b50905060005b83811015610431576000806103d9836104fb565b91509150818584815181106103f1576103f0610bbe565b5b6020026020010181905250808484815181106104105761040f610bbe565b5b6020026020010181815250505050808061042990610c7f565b9150506103c5565b508181945094505050509091565b6002818154811061044f57600080fd5b906000526020600020906002020160009150905080600001805461047290610cf6565b80601f016020809104026020016040519081016040528092919081815260200182805461049e90610cf6565b80156104eb5780601f106104c0576101008083540402835291602001916104eb565b820191906000526020600020905b8154815290600101906020018083116104ce57829003601f168201915b5050505050908060010154905082565b6060600060028054905083108015610514575060008310155b610553576040517f08c379a000000000000000000000000000000000000000000000000000000000815260040161054a90610b9e565b60405180910390fd5b60006002848154811061056957610568610bbe565b5b9060005260206000209060020201905080600001816001015481805461058e90610cf6565b80601f01602080910402602001604051908101604052809291908181526020018280546105ba90610cf6565b80156106075780601f106105dc57610100808354040283529160200191610607565b820191906000526020600020905b8154815290600101906020018083116105ea57829003601f168201915b505050505091509250925050915091565b6000600280549050905090565b60008054906101000a900473ffffffffffffffffffffffffffffffffffffffff1681565b60016020528060005260406000206000915090508060000160009054906101000a900460ff16908060000160019054906101000a900473ffffffffffffffffffffffffffffffffffffffff16905082565b600080fd5b6000819050919050565b6106b28161069f565b81146106bd57600080fd5b50565b6000813590506106cf816106a9565b92915050565b6000602082840312156106eb576106ea61069a565b5b60006106f9848285016106c0565b91505092915050565b600081519050919050565b600082825260208201905092915050565b6000819050602082019050919050565b600081519050919050565b600082825260208201905092915050565b60005b8381101561076857808201518184015260208101905061074d565b60008484015250505050565b6000601f19601f8301169050919050565b60006107908261072e565b61079a8185610739565b93506107aa81856020860161074a565b6107b381610774565b840191505092915050565b60006107ca8383610785565b905092915050565b6000602082019050919050565b60006107ea82610702565b6107f4818561070d565b9350836020820285016108068561071e565b8060005b85811015610842578484038952815161082385826107be565b945061082e836107d2565b925060208a0199505060018101905061080a565b50829750879550505050505092915050565b600081519050919050565b600082825260208201905092915050565b6000819050602082019050919050565b6108898161069f565b82525050565b600061089b8383610880565b60208301905092915050565b6000602082019050919050565b60006108bf82610854565b6108c9818561085f565b93506108d483610870565b8060005b838110156109055781516108ec888261088f565b97506108f7836108a7565b9250506001810190506108d8565b5085935050505092915050565b6000604082019050818103600083015261092c81856107df565b9050818103602083015261094081846108b4565b90509392505050565b600082825260208201905092915050565b60006109658261072e565b61096f8185610949565b935061097f81856020860161074a565b61098881610774565b840191505092915050565b61099c8161069f565b82525050565b600060408201905081810360008301526109bc818561095a565b90506109cb6020830184610993565b9392505050565b60006020820190506109e76000830184610993565b92915050565b600073ffffffffffffffffffffffffffffffffffffffff82169050919050565b6000610a18826109ed565b9050919050565b610a2881610a0d565b82525050565b6000602082019050610a436000830184610a1f565b92915050565b610a5281610a0d565b8114610a5d57600080fd5b50565b600081359050610a6f81610a49565b92915050565b600060208284031215610a8b57610a8a61069a565b5b6000610a9984828501610a60565b91505092915050565b60008115159050919050565b610ab781610aa2565b82525050565b6000604082019050610ad26000830185610aae565b610adf6020830184610a1f565b9392505050565b7f416c726561647920766f7465642e000000000000000000000000000000000000600082015250565b6000610b1c600e83610949565b9150610b2782610ae6565b602082019050919050565b60006020820190508181036000830152610b4b81610b0f565b9050919050565b7f496e76616c69642063616e64696461746520696e6465782e0000000000000000600082015250565b6000610b88601883610949565b9150610b9382610b52565b602082019050919050565b60006020820190508181036000830152610bb781610b7b565b9050919050565b7f4e487b7100000000000000000000000000000000000000000000000000000000600052603260045260246000fd5b7f4e487b7100000000000000000000000000000000000000000000000000000000600052601160045260246000fd5b6000610c278261069f565b9150610c328361069f565b9250828201905080821115610c4a57610c49610bed565b5b92915050565b7f4e487b7100000000000000000000000000000000000000000000000000000000600052604160045260246000fd5b6000610c8a8261069f565b91507fffffffffffffffffffffffffffffffffffffffffffffffffffffffffffffffff8203610cbc57610cbb610bed565b5b600182019050919050565b7f4e487b7100000000000000000000000000000000000000000000000000000000600052602260045260246000fd5b60006002820490506001821680610d0e57607f821691505b602082108103610d2157610d20610cc7565b5b5091905056fea2646970667358221220835eefe01245870c8bbc78ae97ddcf218d758c91696b8fb1872f7998222828a064736f6c63430008130033a2646970667358221220ad22d945be6835756f3b4b4bc21f291fffb44af5a7acfb0b2c028768a2835abf64736f6c63430008130033",
  "immutableReferences": {},
  "source": "// SPDX-License-Identifier: MIT\r\npragma solidity ^0.8.0;\r\n\r\nimport \"./contract.sol\"; // import the contract file\r\n\r\ncontract VotingMigration {\r\n    // Deploy the Voting contract and pass in the array of candidate names as a constructor argument\r\n    function deployVotingContract(string[] memory candidateNames) public {\r\n        Voting voting = new Voting(candidateNames);\r\n        emit VotingDeployed(address(voting));\r\n    }\r\n    // Event that is emitted when the Voting contract is deployed\r\n    event VotingDeployed(address votingAddress);\r\n}\r\n\r\n",
  "sourcePath": "D:\\Ujjval (D)\\DDE\\dde\\contracts\\Migrations.sol",
  "compiler": {
    "name": "solc",
    "version": "0.8.19+commit.7dd6d404.Emscripten.clang"
  },
  "schemaVersion": "3.4.13",
  "updatedAt": "2023-05-04T19:58:54.726Z",
  "networkType": "ethereum",
  "devdoc": {
    "kind": "dev",
    "methods": {},
    "version": 1
  },
  "userdoc": {
    "kind": "user",
    "methods": {},
    "version": 1
  }
}